:10000400972100809381C1FF1701008013014142B1
:040014006F00400039
:10001800B707008093870700130700009306A00026
:1000280023A0E7001307170093874700E31AD7FEBA
:100038001305000067800000B707008003A50700CC
:10004800B707008003A68702130101FF930500008C
:100058003306A64023261100232481002322910081
:1000680023202101EF000019B707008003A507002E
:10007800B707008003A607008325802D3306A64016
:10008800EF00C00413048001930780013304F44097
:1000980013542440135424009304800113090000CE
:1000A80063182401EFF0DFF6730050106FF0DFFFE4
:1000B80083A704001309190093844400E78007000C
:1000C8006FF01FFE730050106FF0DFFFB347B500ED
:1000D80093F73700B308C500639607069307300007
:1000E80063F2C7069377350013070500639A070C78
:1000F80013F6C8FFB306E640930700029302000216
:1001080063C2D70693860500930707006378C70282
:1001180003A80600938747009386460023AE07FF8F
:10012800E3E8C7FE9307F6FFB387E74093F7C7FFF7
:10013800938747003307F700B385F5006368170115
:100148006780000013070500E37C15FF83C70500DF
:100158001307170093851500A30FF7FEE36817FF31
:100168006780000083A6450083A7C50183AF05000B
:1001780003AF850083AEC50003AE050103A34501A7
:1001880003A885012322D70083A605022320F701AF
:100198002324E7012326D7012328C701232A670040
:1001A800232C0701232EF70013074702B307E64065
:1001B800232ED7FE93854502E3C6F2FA6FF09FF42B
:1001C80083C605001307170093773700A30FD7FEE0
:1001D80093851500E38E07F083C605001307170003
:1001E80093773700A30FD7FE93851500E39A07FC92
:1001F8006FF01FF01303F00013070500637EC302BE
:100208009377F7006390070A63920508937606FFD1
:100218001376F600B386E6002320B7002322B70042
:100228002324B7002326B70013070701E366D7FE88
:100238006314060067800000B306C3409396260047
:1002480097020000B38656006780C6002307B700F0
:10025800A306B7002306B700A305B7002305B70018
:10026800A304B7002304B700A303B7002303B70010
:10027800A302B7002302B700A301B7002301B70008
:10028800A300B7002300B7006780000093F5F50FBF
:1002980093968500B3E5D50093960501B3E5D5009F
:1002A8006FF0DFF69396270097020000B38656009A
:1002B80093820000E78006FA93800200938707FF85
:1002C8003307F7403306F600E378C3F66FF0DFF341
:0400000300000004F5
:00000001FF
